:100000000EC015C014C013C012C011C010C00FC064
:100010000EC00DC00CC00BC00AC009C008C011241E
:100020001FBECFE5D1E0DEBFCDBF5ED06CC0E8CF54
:1000300040E050E068EC70E014C0C09828EE33E077
:10004000FB013197F1F721503040D1F7C09A28EEEB
:1000500033E0FB013197F1F721503040D1F74F5F8A
:100060005F4F481759074CF30895CF93DF93EC0186
:100070008230910519F081E090E002C082E090E0CA
:1000800028EE33E048EC50E0FA013197F1F72150C7
:100090003040D1F7B49902C0880F991FC9DF87B3E8
:1000A0009C2F8C2B87BB88B34C2F4095842388BB17
:1000B00028EE33E068EC70E0FB013197F1F7215056
:1000C0003040D1F788B3982B98BB87B3482347BB00
:1000D00088E893E128EC30E0F9013197F1F70197D6
:1000E000D9F7DF91CF91089581E087BB8FE188BB7D
:1000F000B29903C084E090E004C0B199F9CF82E0E6
:0A01000090E0B3DFF5CFF894FFCFD5
:00000001FF
